{
  "_format": "hh-sol-artifact-1",
  "contractName": "DTwitter",
  "sourceName": "contracts/DTwitter.sol",
  "abi": [
    {
      "inputs": [],
      "name": "deleteAllAccounts",
      "outputs": [],
      "stateMutability": "nonpayable",
      "type": "function"
    },
    {
      "inputs": [
        {
          "internalType": "uint256",
          "name": "",
          "type": "uint256"
        }
      ],
      "name": "dweets",
      "outputs": [
        {
          "internalType": "address",
          "name": "author",
          "type": "address"
        },
        {
          "internalType": "string",
          "name": "content",
          "type": "string"
        },
        {
          "internalType": "uint256",
          "name": "timestamp",
          "type": "uint256"
        },
        {
          "internalType": "uint256",
          "name": "likes",
          "type": "uint256"
        }
      ],
      "stateMutability": "view",
      "type": "function"
    },
    {
      "inputs": [],
      "name": "getTweet",
      "outputs": [
        {
          "components": [
            {
              "internalType": "address",
              "name": "author",
              "type": "address"
            },
            {
              "internalType": "string",
              "name": "content",
              "type": "string"
            },
            {
              "internalType": "uint256",
              "name": "timestamp",
              "type": "uint256"
            },
            {
              "internalType": "uint256",
              "name": "likes",
              "type": "uint256"
            }
          ],
          "internalType": "struct DTwitter.Dweet[]",
          "name": "",
          "type": "tuple[]"
        }
      ],
      "stateMutability": "view",
      "type": "function"
    },
    {
      "inputs": [
        {
          "internalType": "address",
          "name": "_wallet",
          "type": "address"
        }
      ],
      "name": "getUser",
      "outputs": [
        {
          "components": [
            {
              "internalType": "address",
              "name": "wallet",
              "type": "address"
            },
            {
              "internalType": "string",
              "name": "name",
              "type": "string"
            },
            {
              "internalType": "string",
              "name": "username",
              "type": "string"
            },
            {
              "internalType": "string",
              "name": "bio",
              "type": "string"
            },
            {
              "internalType": "string",
              "name": "avatar",
              "type": "string"
            }
          ],
          "internalType": "struct DTwitter.User",
          "name": "",
          "type": "tuple"
        }
      ],
      "stateMutability": "view",
      "type": "function"
    },
    {
      "inputs": [
        {
          "internalType": "string",
          "name": "_content",
          "type": "string"
        }
      ],
      "name": "postTweet",
      "outputs": [],
      "stateMutability": "nonpayable",
      "type": "function"
    },
    {
      "inputs": [
        {
          "internalType": "string",
          "name": "_name",
          "type": "string"
        },
        {
          "internalType": "string",
          "name": "_username",
          "type": "string"
        },
        {
          "internalType": "string",
          "name": "_bio",
          "type": "string"
        },
        {
          "internalType": "string",
          "name": "_avatar",
          "type": "string"
        }
      ],
      "name": "signup",
      "outputs": [],
      "stateMutability": "nonpayable",
      "type": "function"
    },
    {
      "inputs": [
        {
          "internalType": "address",
          "name": "",
          "type": "address"
        }
      ],
      "name": "usernames",
      "outputs": [
        {
          "internalType": "string",
          "name": "",
          "type": "string"
        }
      ],
      "stateMutability": "view",
      "type": "function"
    },
    {
      "inputs": [
        {
          "internalType": "string",
          "name": "",
          "type": "string"
        }
      ],
      "name": "users",
      "outputs": [
        {
          "internalType": "address",
          "name": "wallet",
          "type": "address"
        },
        {
          "internalType": "string",
          "name": "name",
          "type": "string"
        },
        {
          "internalType": "string",
          "name": "username",
          "type": "string"
        },
        {
          "internalType": "string",
          "name": "bio",
          "type": "string"
        },
        {
          "internalType": "string",
          "name": "avatar",
          "type": "string"
        }
      ],
      "stateMutability": "view",
      "type": "function"
    }
  ],
  "bytecode": "0x608060405234801561001057600080fd5b50611f6c806100206000396000f3fe608060405234801561001057600080fd5b50600436106100885760003560e01c8063689e1c031161005b578063689e1c03146101045780636f77926b14610138578063ee91877c14610168578063fcf58fa51461019857610088565b80630cbc3dc41461008d57806333432c27146100a957806337dc190c146100b35780633a756bd6146100e6575b600080fd5b6100a760048036038101906100a291906112f0565b6101b4565b005b6100b16103a9565b005b6100cd60048036038101906100c8919061136f565b610562565b6040516100dd949392919061146b565b60405180910390f35b6100ee61064a565b6040516100fb9190611644565b60405180910390f35b61011e600480360381019061011991906112f0565b6107a5565b60405161012f959493929190611666565b60405180910390f35b610152600480360381019061014d9190611701565b610a31565b60405161015f91906117b9565b60405180910390f35b610182600480360381019061017d9190611701565b610d44565b60405161018f91906117db565b60405180910390f35b6101b260048036038101906101ad91906117fd565b610de4565b005b60008060003373ffffffffffffffffffffffffffffffffffffffff1673ffffffffffffffffffffffffffffffffffffffff16815260200190815260200160002080546101ff90611903565b905011610241576040517f08c379a000000000000000000000000000000000000000000000000000000000815260040161023890611980565b60405180910390fd5b6000815111610285576040517f08c379a000000000000000000000000000000000000000000000000000000000815260040161027c90611a12565b60405180910390fd5b608c815111156102ca576040517f08c379a00000000000000000000000000000000000000000000000000000000081526004016102c190611a7e565b60405180910390fd5b600060405180608001604052803373ffffffffffffffffffffffffffffffffffffffff16815260200183815260200142815260200160008152509050600381908060018154018082558091505060019003906000526020600020906004020160009091909190915060008201518160000160006101000a81548173ffffffffffffffffffffffffffffffffffffffff021916908373ffffffffffffffffffffffffffffffffffffffff160217905550602082015181600101908161038e9190611c4a565b50604082015181600201556060820151816003015550505050565b60005b600280549050811015610551576001600080600284815481106103d2576103d1611d1c565b5b9060005260206000200160009054906101000a900473ffffffffffffffffffffffffffffffffffffffff1673ffffffffffffffffffffffffffffffffffffffff1673ffffffffffffffffffffffffffffffffffffffff1681526020019081526020016000206040516104449190611dd9565b9081526020016040518091039020600080820160006101000a81549073ffffffffffffffffffffffffffffffffffffffff021916905560018201600061048a91906110d3565b60028201600061049a91906110d3565b6003820160006104aa91906110d3565b6004820160006104ba91906110d3565b5050600080600283815481106104d3576104d2611d1c565b5b9060005260206000200160009054906101000a900473ffffffffffffffffffffffffffffffffffffffff1673ffffffffffffffffffffffffffffffffffffffff1673ffffffffffffffffffffffffffffffffffffffff168152602001908152602001600020600061054491906110d3565b80806001019150506103ac565b50600260006105609190611113565b565b6003818154811061057257600080fd5b90600052602060002090600402016000915090508060000160009054906101000a900473ffffffffffffffffffffffffffffffffffffffff16908060010180546105bb90611903565b80601f01602080910402602001604051908101604052809291908181526020018280546105e790611903565b80156106345780601f1061060957610100808354040283529160200191610634565b820191906000526020600020905b81548152906001019060200180831161061757829003601f168201915b5050505050908060020154908060030154905084565b60606003805480602002602001604051908101604052809291908181526020016000905b8282101561079c57838290600052602060002090600402016040518060800160405290816000820160009054906101000a900473ffffffffffffffffffffffffffffffffffffffff1673ffffffffffffffffffffffffffffffffffffffff1673ffffffffffffffffffffffffffffffffffffffff1681526020016001820180546106f790611903565b80601f016020809104026020016040519081016040528092919081815260200182805461072390611903565b80156107705780601f1061074557610100808354040283529160200191610770565b820191906000526020600020905b81548152906001019060200180831161075357829003601f168201915b50505050508152602001600282015481526020016003820154815250508152602001906001019061066e565b50505050905090565b6001818051602081018201805184825260208301602085012081835280955050505050506000915090508060000160009054906101000a900473ffffffffffffffffffffffffffffffffffffffff169080600101805461080490611903565b80601f016020809104026020016040519081016040528092919081815260200182805461083090611903565b801561087d5780601f106108525761010080835404028352916020019161087d565b820191906000526020600020905b81548152906001019060200180831161086057829003601f168201915b50505050509080600201805461089290611903565b80601f01602080910402602001604051908101604052809291908181526020018280546108be90611903565b801561090b5780601f106108e05761010080835404028352916020019161090b565b820191906000526020600020905b8154815290600101906020018083116108ee57829003601f168201915b50505050509080600301805461092090611903565b80601f016020809104026020016040519081016040528092919081815260200182805461094c90611903565b80156109995780601f1061096e57610100808354040283529160200191610999565b820191906000526020600020905b81548152906001019060200180831161097c57829003601f168201915b5050505050908060040180546109ae90611903565b80601f01602080910402602001604051908101604052809291908181526020018280546109da90611903565b8015610a275780601f106109fc57610100808354040283529160200191610a27565b820191906000526020600020905b815481529060010190602001808311610a0a57829003601f168201915b5050505050905085565b610a39611134565b60016000808473ffffffffffffffffffffffffffffffffffffffff1673ffffffffffffffffffffffffffffffffffffffff168152602001908152602001600020604051610a869190611dd9565b90815260200160405180910390206040518060a00160405290816000820160009054906101000a900473ffffffffffffffffffffffffffffffffffffffff1673ffffffffffffffffffffffffffffffffffffffff1673ffffffffffffffffffffffffffffffffffffffff168152602001600182018054610b0590611903565b80601f0160208091040260200160405190810160405280929190818152602001828054610b3190611903565b8015610b7e5780601f10610b5357610100808354040283529160200191610b7e565b820191906000526020600020905b815481529060010190602001808311610b6157829003601f168201915b50505050508152602001600282018054610b9790611903565b80601f0160208091040260200160405190810160405280929190818152602001828054610bc390611903565b8015610c105780601f10610be557610100808354040283529160200191610c10565b820191906000526020600020905b815481529060010190602001808311610bf357829003601f168201915b50505050508152602001600382018054610c2990611903565b80601f0160208091040260200160405190810160405280929190818152602001828054610c5590611903565b8015610ca25780601f10610c7757610100808354040283529160200191610ca2565b820191906000526020600020905b815481529060010190602001808311610c8557829003601f168201915b50505050508152602001600482018054610cbb90611903565b80601f0160208091040260200160405190810160405280929190818152602001828054610ce790611903565b8015610d345780601f10610d0957610100808354040283529160200191610d34565b820191906000526020600020905b815481529060010190602001808311610d1757829003601f168201915b5050505050815250509050919050565b60006020528060005260406000206000915090508054610d6390611903565b80601f0160208091040260200160405190810160405280929190818152602001828054610d8f90611903565b8015610ddc5780601f10610db157610100808354040283529160200191610ddc565b820191906000526020600020905b815481529060010190602001808311610dbf57829003601f168201915b505050505081565b60008060003373ffffffffffffffffffffffffffffffffffffffff1673ffffffffffffffffffffffffffffffffffffffff1681526020019081526020016000208054610e2f90611903565b905014610e71576040517f08c379a0000000000000000000000000000000000000000000000000000000008152600401610e6890611e3c565b60405180910390fd5b600073ffffffffffffffffffffffffffffffffffffffff16600184604051610e999190611e8d565b908152602001604051809103902060000160009054906101000a900473ffffffffffffffffffffffffffffffffffffffff1673ffffffffffffffffffffffffffffffffffffffff1614610f21576040517f08c379a0000000000000000000000000000000000000000000000000000000008152600401610f1890611f16565b60405180910390fd5b6040518060a001604052803373ffffffffffffffffffffffffffffffffffffffff16815260200185815260200184815260200183815260200182815250600184604051610f6e9190611e8d565b908152602001604051809103902060008201518160000160006101000a81548173ffffffffffffffffffffffffffffffffffffffff021916908373ffffffffffffffffffffffffffffffffffffffff1602179055506020820151816001019081610fd89190611c4a565b506040820151816002019081610fee9190611c4a565b5060608201518160030190816110049190611c4a565b50608082015181600401908161101a9190611c4a565b50905050826000803373ffffffffffffffffffffffffffffffffffffffff1673ffffffffffffffffffffffffffffffffffffffff16815260200190815260200160002090816110699190611c4a565b506002339080600181540180825580915050600190039060005260206000200160009091909190916101000a81548173ffffffffffffffffffffffffffffffffffffffff021916908373ffffffffffffffffffffffffffffffffffffffff16021790555050505050565b5080546110df90611903565b6000825580601f106110f15750611110565b601f01602090049060005260206000209081019061110f9190611179565b5b50565b50805460008255906000526020600020908101906111319190611179565b50565b6040518060a00160405280600073ffffffffffffffffffffffffffffffffffffffff168152602001606081526020016060815260200160608152602001606081525090565b5b8082111561119257600081600090555060010161117a565b5090565b6000604051905090565b600080fd5b600080fd5b600080fd5b600080fd5b6000601f19601f8301169050919050565b7f4e487b7100000000000000000000000000000000000000000000000000000000600052604160045260246000fd5b6111fd826111b4565b810181811067ffffffffffffffff8211171561121c5761121b6111c5565b5b80604052505050565b600061122f611196565b905061123b82826111f4565b919050565b600067ffffffffffffffff82111561125b5761125a6111c5565b5b611264826111b4565b9050602081019050919050565b82818337600083830152505050565b600061129361128e84611240565b611225565b9050828152602081018484840111156112af576112ae6111af565b5b6112ba848285611271565b509392505050565b600082601f8301126112d7576112d66111aa565b5b81356112e7848260208601611280565b91505092915050565b600060208284031215611306576113056111a0565b5b600082013567ffffffffffffffff811115611324576113236111a5565b5b611330848285016112c2565b91505092915050565b6000819050919050565b61134c81611339565b811461135757600080fd5b50565b60008135905061136981611343565b92915050565b600060208284031215611385576113846111a0565b5b60006113938482850161135a565b91505092915050565b600073ffffffffffffffffffffffffffffffffffffffff82169050919050565b60006113c78261139c565b9050919050565b6113d7816113bc565b82525050565b600081519050919050565b600082825260208201905092915050565b60005b838110156114175780820151818401526020810190506113fc565b60008484015250505050565b600061142e826113dd565b61143881856113e8565b93506114488185602086016113f9565b611451816111b4565b840191505092915050565b61146581611339565b82525050565b600060808201905061148060008301876113ce565b81810360208301526114928186611423565b90506114a1604083018561145c565b6114ae606083018461145c565b95945050505050565b600081519050919050565b600082825260208201905092915050565b6000819050602082019050919050565b6114ec816113bc565b82525050565b600082825260208201905092915050565b600061150e826113dd565b61151881856114f2565b93506115288185602086016113f9565b611531816111b4565b840191505092915050565b61154581611339565b82525050565b600060808301600083015161156360008601826114e3565b506020830151848203602086015261157b8282611503565b9150506040830151611590604086018261153c565b5060608301516115a3606086018261153c565b508091505092915050565b60006115ba838361154b565b905092915050565b6000602082019050919050565b60006115da826114b7565b6115e481856114c2565b9350836020820285016115f6856114d3565b8060005b85811015611632578484038952815161161385826115ae565b945061161e836115c2565b925060208a019950506001810190506115fa565b50829750879550505050505092915050565b6000602082019050818103600083015261165e81846115cf565b905092915050565b600060a08201905061167b60008301886113ce565b818103602083015261168d8187611423565b905081810360408301526116a18186611423565b905081810360608301526116b58185611423565b905081810360808301526116c98184611423565b90509695505050505050565b6116de816113bc565b81146116e957600080fd5b50565b6000813590506116fb816116d5565b92915050565b600060208284031215611717576117166111a0565b5b6000611725848285016116ec565b91505092915050565b600060a08301600083015161174660008601826114e3565b506020830151848203602086015261175e8282611503565b915050604083015184820360408601526117788282611503565b915050606083015184820360608601526117928282611503565b915050608083015184820360808601526117ac8282611503565b9150508091505092915050565b600060208201905081810360008301526117d3818461172e565b905092915050565b600060208201905081810360008301526117f58184611423565b905092915050565b60008060008060808587031215611817576118166111a0565b5b600085013567ffffffffffffffff811115611835576118346111a5565b5b611841878288016112c2565b945050602085013567ffffffffffffffff811115611862576118616111a5565b5b61186e878288016112c2565b935050604085013567ffffffffffffffff81111561188f5761188e6111a5565b5b61189b878288016112c2565b925050606085013567ffffffffffffffff8111156118bc576118bb6111a5565b5b6118c8878288016112c2565b91505092959194509250565b7f4e487b7100000000000000000000000000000000000000000000000000000000600052602260045260246000fd5b6000600282049050600182168061191b57607f821691505b60208210810361192e5761192d6118d4565b5b50919050565b7f596f75206d757374207369676e757020746f20706f7374206120747765657400600082015250565b600061196a601f836113e8565b915061197582611934565b602082019050919050565b600060208201905081810360008301526119998161195d565b9050919050565b7f596f75206d75737420777269746520736f6d657468696e6720746f20706f737460008201527f20612064776565742e0000000000000000000000000000000000000000000000602082015250565b60006119fc6029836113e8565b9150611a07826119a0565b604082019050919050565b60006020820190508181036000830152611a2b816119ef565b9050919050565b7f596f757220647765657420697320746f6f206c6f6e6700000000000000000000600082015250565b6000611a686016836113e8565b9150611a7382611a32565b602082019050919050565b60006020820190508181036000830152611a9781611a5b565b9050919050565b60008190508160005260206000209050919050565b60006020601f8301049050919050565b600082821b905092915050565b600060088302611b007fffffffffffffffffffffffffffffffffffffffffffffffffffffffffffffffff82611ac3565b611b0a8683611ac3565b95508019841693508086168417925050509392505050565b6000819050919050565b6000611b47611b42611b3d84611339565b611b22565b611339565b9050919050565b6000819050919050565b611b6183611b2c565b611b75611b6d82611b4e565b848454611ad0565b825550505050565b600090565b611b8a611b7d565b611b95818484611b58565b505050565b5b81811015611bb957611bae600082611b82565b600181019050611b9b565b5050565b601f821115611bfe57611bcf81611a9e565b611bd884611ab3565b81016020851015611be7578190505b611bfb611bf385611ab3565b830182611b9a565b50505b505050565b600082821c905092915050565b6000611c2160001984600802611c03565b1980831691505092915050565b6000611c3a8383611c10565b9150826002028217905092915050565b611c53826113dd565b67ffffffffffffffff811115611c6c57611c6b6111c5565b5b611c768254611903565b611c81828285611bbd565b600060209050601f831160018114611cb45760008415611ca2578287015190505b611cac8582611c2e565b865550611d14565b601f198416611cc286611a9e565b60005b82811015611cea57848901518255600182019150602085019450602081019050611cc5565b86831015611d075784890151611d03601f891682611c10565b8355505b6001600288020188555050505b505050505050565b7f4e487b7100000000000000000000000000000000000000000000000000000000600052603260045260246000fd5b600081905092915050565b60008154611d6381611903565b611d6d8186611d4b565b94506001821660008114611d885760018114611d9d57611dd0565b60ff1983168652811515820286019350611dd0565b611da685611a9e565b60005b83811015611dc857815481890152600182019150602081019050611da9565b838801955050505b50505092915050565b6000611de58284611d56565b915081905092915050565b7f7573657220616c72656164792065786973747300000000000000000000000000600082015250565b6000611e266013836113e8565b9150611e3182611df0565b602082019050919050565b60006020820190508181036000830152611e5581611e19565b9050919050565b6000611e67826113dd565b611e718185611d4b565b9350611e818185602086016113f9565b80840191505092915050565b6000611e998284611e5c565b915081905092915050565b7f757365726e616d652069732074616b656e2c2074727920616e6f74686572206f60008201527f6e652e0000000000000000000000000000000000000000000000000000000000602082015250565b6000611f006023836113e8565b9150611f0b82611ea4565b604082019050919050565b60006020820190508181036000830152611f2f81611ef3565b905091905056fea2646970667358221220eebb5ee7368e7ee8a9a6fd82dc813007637365899083d2a26f62352dd624a8fe64736f6c63430008180033",
  "linkReferences": {},
  "deployedLinkReferences": {}
}